S0150000546F6F6C626F784C6F616465722E73726563D1
S11300000C942A000C9447000C9447000C9447006D
S11300100C9447000C9447000C9447000C94470040
S11300200C9447000C9447000C9447000C94470030
S11300300C9447000C9447000C9447000C94470020
S11300400C9447000C9447000C9447000C94470010
S11300500C94470011241FBECFE5D4E0DEBFCDBF12
S113006010E0A0E6B0E0E8E9F0E102C005900D92EE
S1130070A237B107D9F720E0A2E7B0E001C01D9292
S1130080A637B207E1F70E9449000C944A080C9481
S113009000000E94AD030E9447060000FECF9C01B1
S11300A0CB0150E0B9010E943A080895DC9AE7E5D3
S11300B0F2E03197F1F700C00000DE9898B39B712D
S11300C098BB80FDC29A81FDC59A82FDC69A83FDC4
S11300D0C79A84FDDE9ADC9887E592E00197F1F7F0
S11300E000C0000008958FE59AEE0197F1F700C073
S11300F0000080E00E9456008FE59AEE0197F1F728
S113010000C0000082E00E94560008958AB3806512
S11301108ABB87B3846E87BB8FE59AEE0197F1F7AC
S113012000C0000083E00E9456008FE295E701972B
S1130130F1F700C0000083E40E94560087EB9BE0C7
S11301400197F1F700C0000083E00E94560082E0AE
S11301500E94560082E00E94560088E00E945600E9
S113016080E00E9456008CE00E94560080E00E94CD
S1130170560081E00E94560080E00E94560086E00E
S11301800E94560087EB9BE00197F1F700C0000046
S11301900E94730061ED70E080E090E00E94130320
S11301A00895CF93C62F862F82958F70E7E5F2E0EE
S11301B03197F1F700C0000080610E9456008C2F37
S11301C08F70E7E5F2E03197F1F700C0000080613D
S11301D00E945600CF910895CF93C62F8111C05C21
S11301E08C2F82958F70E7E5F2E03197F1F700C02C
S11301F0000088600E94560087E592E00197F1F7BD
S113020000C000008C2F8F700E945600CF9108957B
S11302108F929F92AF92BF92CF92DF92EF92FF9212
S11302200F931F93CF93DF93EC018B015A01790154
S113023086179707A0F0E1E0F0E0CF01809FF0017E
S1130240819FF00D909FF00D1124CE01BF010E94FB
S11302508C076017710788F7309719F437C0E1E00D
S1130260F0E0C12CD12C01C07A01CE01BF010E9463
S11302708C07362F262F862E972EC82FD92FCF01E5
S1130280B8010E948C07FB01C114D10439F418147D
S1130290190424F0309711F1A701E6CFA7014F5FAD
S11302A05F4F9AE0891691042CF0A114B10421F453
S11302B087E503C080E301C087E3380FD7013C938F
S11302C0BFEFCB1ADB0A309779F601C0A701FA0118
S11302D010820CC0205DD7012C93F9CFA7014F5F8A
S11302E05F4FBAE08B169104ACF3DFCFDF91CF916F
S11302F01F910F91FF90EF90DF90CF90BF90AF9040
S11303009F908F9008959F92AF92BF92CF92DF9269
S1130310EF92FF920F931F93CF93DF936C015B01D6
S1130320211104C06894992495F804C00F2EF0E3B9
S11303309F2EF02D78018FEFE81AF80AF8016081FA
S1130340662349F11416150664F5F701CA010197ED
S113035021912223D1F0AC01892BC1F722C0692D50
S1130360C601F50109952197CE01019618161906C3
S1130370B4F3F80160816623B9F0E701C601F50121
S1130380099569916111FACF0FC0EA0122971816F5
S113039019062CF3F2CFEA01219714161506FCF284
S11303A003C0F8016081E9CFDF91CF911F910F91D4
S11303B0FF90EF90DF90CF90BF90AF909F90089503
S11303C02F923F924F925F926F927F928F929F9261
S11303D0AF92BF92CF92DF92EF92FF920F931F934F
S11303E0CF93DF93CDB7DEB760970FB6F894DEBF37
S11303F00FBECDBF4C015B016A018901212C9E0116
S11304002F5F3F4F3E872D87512C312CCE01029612
S1130410988B8F87EBC0653239F09FEFC91AD90AE0
S1130420C401F5010995E2C0F6018181803329F008
S1130430F2E0CF0ED11C412C08C0F6018281960156
S11304402D5F3F4F69014424439490ED980F9A30F7
S1130450A0F5A601E52CF32C11C0C701880F991F44
S1130460EE0CFF1CEE0CFF1CEE0CFF1CE80EF91E3C
S1130470E20EF31EF60180814F5F5F4F6A0190ED3B
S1130480980F9A3028F4282F30E02053310911C0F6
S11304909FE9980F963028F4282F30E0275531092A
S11304A008C09FEB980F963050F4282F30E0275364
S11304B031092B30310588F202C0E52CF32C833648
S11304C009F476C050F4853209F48CC0883509F4F7
S11304D050C0882309F48EC089C0833709F473C0DF
S11304E018F4843611F182C0853721F0883709F475
S11304F040C07CC03801F2E06F0E711C9E012F5F7A
S11305003F4F452D532D6AE070E0F80180819181C1
S11305100E9408018E010F5F1F4F242DA701B50112
S1130520C4010E948301830161C03801F2E06F0EAF
S1130530711CF80180819181992344F491958195EE
S11305409109FDE2F9832F85388902C02D853E8506
S1130550452D532D6AE070E00E9408018E010F5F63
S11305601F4F242DA701B501C4010E9483018301FB
S11305703DC0380122E0620E711C41E0522D8835E5
S113058011F0452D532D9E012F5F3F4F60E170E028
S1130590F801808191810E9408018E010F5F1F4F35
S11305A0242DA701B501C4010E94830183011EC04B
S11305B07801F2E0EF0EF11CF8016081C401F5014D
S11305C00995870113C03801F2E06F0E711CF80120
S11305D00081118120E0A701B501C4010E948301BB
S11305E0830104C065E2C401F5010995F601608147
S11305F0611111CF60960FB6F894DEBF0FBECDBF68
S1130600DF91CF911F910F91FF90EF90DF90CF90EA
S1130610BF90AF909F908F907F906F905F904F901E
S11306203F902F9008957093750060937400909399
S11306307300809372000895CF93DF93CDB7DEB734
S11306409E012B5F3F4FF901419151919F016091B0
S113065074007091750080917200909173000E94F3
S1130660E001DF91CF9108950F931F93CF93DF9310
S1130670182F092FD62FC42F842F0E94EC0080E658
S113068090E09F938F930E941C036D2F8C2F0E94E8
S1130690EC000F931F938FE690E09F938F930E943B
S11306A01C030F900F900F900F900F900F90DF91FD
S11306B0CF911F910F910895009791F020E030E0C1
S11306C0613019F444E04A95F1F7E7EBFBE0319728
S11306D0F1F700C000002F5F3F4F8217930781F7A7
S11306E00895EF92FF920F931F93CF93DF938C01A2
S11306F0D62F7A01FC011082662361F0C0E0F80174
S113070080818095808360E0C7010E945C03CF5F95
S1130710DC13F5CFF8011082DF91CF911F910F9177
S1130720FF90EF900895CF93DF93EC019881888137
S1130730292F30E0220F331F2160282B28834115F5
S1130740510521F060E0CA010E945C0388818F3F5B
S113075009F41882DF91CF910895CF93DF93CDB739
S1130760DEB72A970FB6F894DEBF0FBECDBF8FEF6A
S113077084BB1ABA8BBB15BA4AEF50E061E085E33B
S113078090E00E94930341E060E088E00E94AB06A1
S11307904AEF50E061E085E390E00E94930346E075
S11307A0BE016F5F7F4F80E490E00E944F004AEFEC
S11307B050E061E085E390E00E94930361E0CE01A4
S11307C001960E94DB064AEF50E061E085E390E089
S11307D00E9493030E9486004AEF50E061E085E3A3
S11307E090E00E94930340E060E0CE0101960E94F5
S11307F034034AEF50E061E085E390E00E94930304
S113080044E650E06AE085E390E00E94710348E02A
S1130810BE016F5F7F4F86E590E00E944F0040E08D
S113082060E0CE0101960E94340361E0CE0101969E
S11308300E94DB0648E0BE016F5F7F4F8EE490E0CC
S11308400E944F0041E060E0CE0101960E94340313
S113085061E0CE0101960E94DB062A960FB6F89459
S1130860DEBF0FBECDBFDF91CF9108952F923F928F
S11308704F925F926F927F928F929F92AF92BF92AC
S1130880CF92DF92EF92FF920F931F93CF93DF9358
S113089000D000D0CDB7DEB72A2C3B2C4C2C5D2CDD
S11308A06E2C7F2C09831A8302E00E94FF07822E9C
S11308B0932E4C835B83B62FA72FF82FE92F0E942A
S11308C0FF07A22EB32EC42ED52EE62EF72E082F08
S11308D0192F282D392D4C815B816B2F7A2F8F2F67
S11308E09E2F0E941808822E932E4C835B83B62F72
S11308F0A72FF82FE92F02E00E94FF07A22EB32EA4
S1130900C42ED52EE62EF72E082F192F282D392D7B
S11309104C815B816B2F7A2F8F2F9E2F0E9418089A
S1130920A22CB32CC42CD52CE62CF72C09811A81CB
S11309300E94A207298360E081E00E94EC0080E627
S113094090E09F938F930E941C0360E081E00E94DB
S1130950EC0089E690E09F938F931F9289818F9397
S11309608BE690E09F938F930E941C030FB6F8943C
S1130970DEBF0FBECDBF89810F900F900F900F90F7
S1130980DF91CF911F910F91FF90EF90DF90CF9067
S1130990BF90AF909F908F907F906F905F904F909B
S11309A03F902F900895CF93DF93CDB7DEB7C55214
S11309B0D1400FB6F894DEBF0FBECDBF4C0141E06D
S11309C060E00E94340361E0C4010E94DB0647E05A
S11309D0BE01655F7F4F87E090E00E944F003E01BB
S11309E081EE681A8EEF780ACC5DDE4F6882C452BD
S11309F0D140CB5DDE4F7882C552D140EAC047E09A
S1130A00BE01655F7F4F80E090E00E944F0061E08F
S1130A10CE010B960E94DB06CE0145960E94190773
S1130A208D899E89899FC00111244F89489F900117
S1130A30499F300D1124888D829F4001839F900C23
S1130A40112447E0BE01655F7F4F87E090E00E947C
S1130A504F00892889F4A7C047E0BE01655F7F4F36
S1130A608EE090E00E944F0061E0CE010B960E9460
S1130A70DB06E2E0E5BB02C147E0BE01655F7F4FF4
S1130A808CE190E00E944F0061E0CE010B960E9441
S1130A90DB06F30110824E01FFE18F0E911C412C05
S1130AA0512C312C212CC05EDE4F1882C052D14013
S1130AB0CF5DDE4F1882C152D140CE5DDE4F188229
S1130AC0C252D140CD5DDE4F1882C352D140CC5DBD
S1130AD0DE4F8881C452D140CB5DDE4F9881C55230
S1130AE0D1400E941107242D352D432D522DC05E77
S1130AF0DE4F6881C052D140CF5DDE4F7881C15254
S1130B00D140CE5DDE4F8881C252D140CD5DDE4FF3
S1130B109881C352D140A1E00E942108422E532E55
S1130B20342E252EC05EDE4F6883C052D140CF5D87
S1130B30DE4F7883C152D140CE5DDE4F8883C252EE
S1130B40D140CD5DDE4F9883C352D140A12CBB244C
S1130B50B394C12CD12CE12CF12C00E010E00E94C4
S1130B603604F3018081F40181934F01E615F70502
S1130B7009F0ADCF61E0CE014F960E94DB0647E05D
S1130B80BE01655F7F4F85E190E00E944F0061E008
S1130B90CE010B960E94DB0641E060E0CE010B968D
S1130BA00E9434036BC047E0BE01655F7F4F8EE057
S1130BB090E00E944F0061E0CE010B960E94DB069C
S1130BC041E060E0CE010B960E943403F4E0F5BBF3
S1130BD055C015BA47E0BE01655F7F4F81E390E0E1
S1130BE00E944F00CE0101960E94550746E050E056
S1130BF0BE01655F7F4FCE0101960E942D08892BAF
S1130C0071F547E0BE01655F7F4F85E190E00E948A
S1130C104F0061E0CE010B960E94DB0647E0BE0167
S1130C20655F7F4F87E090E00E944F0047E0BE0180
S1130C30655F7F4F87E090E00E944F00CE010196F0
S1130C400E94550746E050E0BE01655F7F4FCE012C
S1130C5001960E942D08892B09F4D1CEFDCE47E0E0
S1130C60BE01655F7F4F8EE090E00E944F0061E01F
S1130C70CE010B960E94DB0681E085BB47E0BE01F6
S1130C80655F7F4F87E090E00E944F00A2CFCF9333
S1130C90DF93CDB7DEB72A970FB6F894DEBF0FBE49
S1130CA0CDBFC8990CC047E0BE016F5F7F4F81E3A1
S1130CB090E00E944F00CE0101960E94D304C9998E
S1130CC014C047E0BE016F5F7F4F8AE290E00E944C
S1130CD04F0041E060E0CE0101960E94340361E0E0
S1130CE0CE0101960E94DB06ECCFCA9914C047E0FE
S1130CF0BE016F5F7F4F83E290E00E944F0041E0AE
S1130D0060E0CE0101960E94340361E0CE010196B9
S1130D100E94DB06ECCF48E0BE016F5F7F4F88E3A3
S1130D2090E00E944F0041E060E0CE0101960E94F5
S1130D30340361E0CE0101960E94DB062A960FB6C9
S1130D40F894DEBF0FBECDBFDF91CF9108955D9BB8
S1130D50FECF8CB9089592E09BB910BC9AE199B981
S1130D60863349F018F4853371F00BC0873329F0CA
S1130D70893329F006C082E807C084E805C086E804
S1130D8003C086E801C080E88F7C653419F06F34B5
S1130D9019F003C0806201C08063423311F488609B
S1130DA001C0877F80BD88E18AB9579A789480E032
S1130DB00E94A70608951F93CF93DF93EC01162F8B
S1130DC08881882331F021960E94A7068991811198
S1130DD0FBCF113051F028F0123071F0133081F054
S1130DE013C080E00E94A70612C08AE00E94A706F2
S1130DF08DE00E94A7060BC089E00E94A70607C0E9
S1130E0080E20E94A70603C08BE10E94A706DF913F
S1130E10CF911F9108955F9B03C02CB1FC012083E7
S1130E200895FC015F9BFECF8CB180830E94A706CE
S1130E300895CF92DF92EF92FF920F931F93CF9377
S1130E40DF931F92CDB7DEB76C010BE7CE0101969D
S1130E500E940B0789818B37D9F4F60101937F0136
S1130E60802F0E94A70611E0CE0101960E9411076F
S1130E708981F70181937F011F5F183061F08D37FD
S1130E8099F7F601E10FF11D10821123F9F203C065
S1130E90F6011082DBCF0F90DF91CF911F910F915C
S1130EA0FF90EF90DF90CF900895CF92DF92EF9272
S1130EB0FF920F931F93CF93DF931F92CDB7DEB7AB
S1130EC0C82ED92E0BE5CE0101960E940B0789810D
S1130ED08B35C9F7EC2CFD2CF70101937F01802F92
S1130EE00E94A70611E0CE0101960E941107898194
S1130EF0F70181937F011F5F183021F08D3599F739
S1130F00112309F30F90DF91CF911F910F91FF905F
S1130F10EF90DF90CF900895AA1BBB1B51E107C04F
S1130F20AA1FBB1FA617B70710F0A61BB70B881F75
S1130F30991F5A95A9F780959095BC01CD01089504
S1130F40689401C0E8948F929F92CF93DF930E949C
S1130F50AE07DF91CF919F908F90089588249924B4
S1130F60F401E401B0E49F93AA279A158B049C042E
S1130F70ED05FE05CF05D007A10798F4AD2FDC2FB2
S1130F80CF2FFE2FE92D982C892E982F872F762F7F
S1130F90652F542F432F322F2227B85031F7BF919A
S1130FA027C01B2EBF91BB27220F331F441F551F81
S1130FB0661F771F881F991F881C991CEE1FFF1F2F
S1130FC0CC1FDD1FAA1FBB1F8A149B04EC05FD0563
S1130FD0CE05DF05A007B10748F08A189B08EC0985
S1130FE0FD09CE09DF09A00BB10B21601A94E1F6CB
S1130FF02EF49401AF01BE01CD01000C08950F93AE
S1131000083090F0982F872F762F652F542F432F79
S1131010322F22270850F4CF220F331F441F551FAD
S1131020661F771F881F991F0A95B2F70F910895BD
S11310302A0D3B1D4C1D5D1D6E1D7F1D801F911FC4
S113104008950024A7FD00942A0F301D401D501D53
S1131050601D701D801D901D0895FB01DC0104C0FE
S11310608D910190801921F441505040C8F7881B9C
S1131070990B0895DC01CB01FC01E199FECF06C078
S1131080FFBBEEBBE09A31960DB20D924150504039
S10B1090B8F70895F894FFCFAE
S11310982020202020202020002500503D257525D3
S10510A87300CF
S9030000FC
