:100000000C942A000C9447000C9447000C94470071
:100010000C9447000C9447000C9447000C94470044
:100020000C9447000C9447000C9447000C94470034
:100030000C9447000C9447000C9447000C94470024
:100040000C9447000C9447000C9447000C94470014
:100050000C94470011241FBECFE5D4E0DEBFCDBF16
:1000600010E0A0E6B0E0ECE0F4E102C005900D92F3
:10007000A237B107D9F720E0A2E7B0E001C01D9296
:10008000A637B207E1F70E9449000C94040A0C94C9
:1000900000000E943B070E9489060000FECF9C01E1
:1000A000CB0150E0B9010E94F409089584EA86BFAB
:1000B00006B607FEFDCF089583B984E886BF06B66D
:1000C00007FEFDCF0895811103C084E886BF02C0FA
:1000D00084EC86BF06B607FEFDCF83B108951F935B
:1000E000CF93DF93182FD62FC42F0E945600812F55
:1000F0000E945C008D2F0E945C008C2F0E945C008F
:10010000D4E9D6BF87E99AE30197F1F700C0000070
:100110000E945600812F81600E945C0080E00E9456
:100120006300D6BF91E0C81390E0892F8195DF91DD
:10013000CF911F9108952F923F924F925F926F92AD
:100140007F928F929F92AF92BF92CF92DF92EF9267
:10015000FF920F931F93CF93DF93CDB7DEB729970D
:100160000FB6F894DEBF0FBECDBF89836A833A0114
:100170002B830E94560089810E945C008A810E9424
:100180005C000E945600898181600E945C002B8186
:10019000222309F45AC0822F815090E0FC0131964D
:1001A000FD83EC83F1E0198619821A82512C212CEF
:1001B000312C412C812C912C822F90E09C012150DC
:1001C00031093F832E83F8878E819F818815990599
:1001D00034F080E00E946300F301808305C081E079
:1001E0000E946300F3018083FFEF6F1A7F0AAB80E8
:1001F000B12CC12CD12CE12CF12C00E010E0288591
:10020000398549815A81652D722D842D932D0E9447
:10021000C4072FEF821A920A2885398549815A81AD
:10022000652D722D842D932DA1E00E94DB09288776
:10023000398749835A83562E272E482E392E8C8192
:100240009D818816990609F0BFCF84E986BF29965B
:100250000FB6F894DEBF0FBECDBFDF91CF911F91D7
:100260000F91FF90EF90DF90CF90BF90AF909F9055
:100270008F907F906F905F904F903F902F90089558
:100280005F926F927F928F929F92AF92BF92CF9226
:10029000DF92EF92FF920F931F93CF93DF93CDB72F
:1002A000DEB7682E562E7A01722EADB6BEB6822EFD
:1002B000912C8DB79EB7881999090FB6F8949EBFF7
:1002C0000FBE8DBFEDB7FEB731966F010E9456008D
:1002D000862D0E945C00852D0E945C008114910493
:1002E00059F087018E0C9F1CF80181918F010E94AB
:1002F0005C0008151905C1F784E986BF87E99AE310
:100300000197F1F700C00000272DA601652D862D6D
:100310000E949B007720D1F0F6019081F701808147
:10032000981316C0F6013196D70111967A94872D4D
:1003300090E00196C80ED91E04C091918D9198133A
:1003400009C0EC15FD05C9F78FEF05C08FEF03C09D
:1003500080E001C080E00FB6F894BEBE0FBEADBE17
:10036000DF91CF911F910F91FF90EF90DF90CF9091
:10037000BF90AF909F908F907F906F905F90089507
:10038000DC9AE7E5F2E03197F1F700C00000DE9873
:1003900098B39B7198BB80FDC29A81FDC59A82FD7E
:1003A000C69A83FDC79A84FDDE9ADC9887E592E0C1
:1003B0000197F1F700C0000008958FE59AEE0197CC
:1003C000F1F700C0000080E00E94C0018FE59AEEC6
:1003D0000197F1F700C0000082E00E94C00108957B
:1003E0008AB380658ABB87B3846E87BB8FE59AEE3C
:1003F0000197F1F700C0000083E00E94C0018FE286
:1004000095E70197F1F700C0000083E40E94C00166
:1004100087EB9BE00197F1F700C0000083E00E94AA
:10042000C00182E00E94C00182E00E94C00188E019
:100430000E94C00180E00E94C0018CE00E94C001C7
:1004400080E00E94C00181E00E94C00180E00E9423
:10045000C00186E00E94C00187EB9BE00197F1F7A5
:1004600000C000000E94DD016BE372E080E090E0DC
:100470000E947D040895CF93C62F862F82958F709A
:10048000E7E5F2E03197F1F700C0000080610E94DB
:10049000C0018C2F8F70E7E5F2E03197F1F700C0D3
:1004A000000080610E94C001CF910895CF93C62FB4
:1004B0008111C05C8C2F82958F70E7E5F2E0319757
:1004C000F1F700C0000088600E94C00187E592E05B
:1004D0000197F1F700C000008C2F8F700E94C001BF
:1004E000CF9108958F929F92AF92BF92CF92DF9259
:1004F000EF92FF920F931F93CF93DF93EC018B0149
:100500005A01790186179707A0F0E1E0F0E0CF01EA
:10051000809FF001819FF00D909FF00D1124CE017E
:10052000BF010E9446096017710788F7309719F4D8
:1005300037C0E1E0F0E0C12CD12C01C07A01CE013E
:10054000BF010E944609362F262F862E972EC82FD0
:10055000D92FCF01B8010E944609FB01C114D10473
:1005600039F41814190424F0309711F1A701E6CFDB
:10057000A7014F5F5F4F9AE0891691042CF0A114F8
:10058000B10421F487E503C080E301C087E3380F9D
:10059000D7013C93BFEFCB1ADB0A309779F601C045
:1005A000A701FA0110820CC0205DD7012C93F9CF6E
:1005B000A7014F5F5F4FBAE08B169104ACF3DFCF1A
:1005C000DF91CF911F910F91FF90EF90DF90CF902F
:1005D000BF90AF909F908F9008959F92AF92BF92DF
:1005E000CF92DF92EF92FF920F931F93CF93DF93FF
:1005F0006C015B01211104C06894992495F804C032
:100600000F2EF0E39F2EF02D78018FEFE81AF80AF5
:10061000F8016081662349F11416150664F5F701A7
:10062000CA01019721912223D1F0AC01892BC1F796
:1006300022C0692DC601F50109952197CE010196C9
:1006400018161906B4F3F80160816623B9F0E701C2
:10065000C601F501099569916111FACF0FC0EA0150
:100660002297181619062CF3F2CFEA0121971416D7
:100670001506FCF203C0F8016081E9CFDF91CF914C
:100680001F910F91FF90EF90DF90CF90BF90AF90B0
:100690009F9008952F923F924F925F926F927F9218
:1006A0008F929F92AF92BF92CF92DF92EF92FF9282
:1006B0000F931F93CF93DF93CDB7DEB760970FB63D
:1006C000F894DEBF0FBECDBF4C015B016A0189010A
:1006D000212C9E012F5F3F4F3E872D87512C312CBF
:1006E000CE010296988B8F87EBC0653239F09FEF71
:1006F000C91AD90AC401F5010995E2C0F601818140
:10070000803329F0F2E0CF0ED11C412C08C0F60155
:10071000828196012D5F3F4F69014424439490EDFF
:10072000980F9A30A0F5A601E52CF32C11C0C70153
:10073000880F991FEE0CFF1CEE0CFF1CEE0CFF1C2B
:10074000E80EF91EE20EF31EF60180814F5F5F4F47
:100750006A0190ED980F9A3028F4282F30E020534A
:10076000310911C09FE9980F963028F4282F30E006
:100770002755310908C09FEB980F963050F4282F69
:1007800030E0275331092B30310588F202C0E52CC7
:10079000F32C833609F476C050F4853209F48CC00A
:1007A000883509F450C0882309F48EC089C0833786
:1007B00009F473C018F4843611F182C0853721F032
:1007C000883709F440C07CC03801F2E06F0E711C1C
:1007D0009E012F5F3F4F452D532D6AE070E0F801D9
:1007E000808191810E9472028E010F5F1F4F242D24
:1007F000A701B501C4010E94ED02830161C0380167
:10080000F2E06F0E711CF80180819181992344F40C
:10081000919581959109FDE2F9832F85388902C070
:100820002D853E85452D532D6AE070E00E947202B1
:100830008E010F5F1F4F242DA701B501C4010E9437
:10084000ED0283013DC0380122E0620E711C41E0DF
:10085000522D883511F0452D532D9E012F5F3F4FAE
:1008600060E170E0F801808191810E9472028E0146
:100870000F5F1F4F242DA701B501C4010E94ED0297
:1008800083011EC07801F2E0EF0EF11CF8016081D7
:10089000C401F5010995870113C03801F2E06F0E1C
:1008A000711CF8010081118120E0A701B501C4018C
:1008B0000E94ED02830104C065E2C401F5010995BF
:1008C000F6016081611111CF60960FB6F894DEBF1A
:1008D0000FBECDBFDF91CF911F910F91FF90EF9091
:1008E000DF90CF90BF90AF909F908F907F906F9050
:1008F0005F904F903F902F90089570937500609394
:10090000740090937300809372000895CF93DF93E7
:10091000CDB7DEB79E012B5F3F4FF9014191519159
:100920009F016091740070917500809172009091A8
:1009300073000E944A03DF91CF910895CF93DF9314
:10094000CDB7DEB7CE51D1400FB6F894DEBF0FBEA3
:10095000CDBF8C0141E060E00E94610661E0C8010A
:100960000E9493086894992491F86894AA24A2F8A4
:100970006894882483F80F2EF5E07F2EF02D28C18F
:1009800047E0BE01655F7F4F8AE290E00E944F0022
:1009900061E0CE010B960E949308CE0145960E941D
:1009A000D108CD8847E0BE01655F7F4F83E290E0CC
:1009B0000E944F00CE0101960E940E0946E050E0D1
:1009C000BE01655F7F4FCE0101960E94E709892B2A
:1009D00081F03AC047E0BE01655F7F4F86E490E05A
:1009E0000E944F0061E0CE010B960E94930895BAD9
:1009F000EFC047E0BE01655F7F4F8CE190E00E9451
:100A00004F0061E0CE010B960E949308CE014596FF
:100A10000E94D108DD8847E0BE01655F7F4F85E118
:100A200090E00E944F00CE0101960E940E0946E020
:100A300050E0BE01655F7F4FCE0101960E94E7093D
:100A4000892B09F428C10FC047E0BE01655F7F4FC5
:100A500086E490E00E944F0061E0CE010B960E9478
:100A60009308A5BAB5C047E0BE01655F7F4F8EE031
:100A700090E00E944F0046E050E0BE01655F7F4F6E
:100A8000CE0101960E94E709892B09F4EFC047E0E7
:100A9000BE01655F7F4F86E490E00E944F0061E0F9
:100AA000CE010B960E94930875BA92C047E0BE0132
:100AB000655F7F4F8FE390E00E944F0061E0CE01C1
:100AC0000B960E949308113021F48F8D0E946108CB
:100AD00005C061E0CE014F960E94930847E0BE0139
:100AE000655F7F4F8DE490E00E944F0061E0CE0192
:100AF0000B960E94930861E0CE010B960E9493082A
:100B000067C047E0BE01655F7F4F88E390E00E94C9
:100B10004F0061E0CE010B960E94930881E0B8126D
:100B20000BC0CE014F960E94C9084F8D6D2D8C2DA4
:100B30000E946F00182F1DC08E01015E1F4FEE2412
:100B4000EA94EB0CF12C8FEFE81AF80AE00EF11E94
:100B5000C8010E94C9080F5F1F4FE016F106C1F7D8
:100B60002B2DAE01415E5F4F6D2D8C2D0E944001FB
:100B7000182F2B2DAE01415E5F4F6D2D8C2D0E94E5
:100B80009B001F3F49F447E0BE01655F7F4F8DE446
:100B900090E00E944F0008C047E0BE01655F7F4FB4
:100BA00086E490E00E944F0061E0CE010B960E9427
:100BB00093080EC047E0BE01655F7F4F86E490E07A
:100BC0000E944F0061E0CE010B960E94930885BA07
:100BD00015BA47E0BE01655F7F4F82E690E00E9454
:100BE0004F00CE0101960E940E0946E050E0BE0182
:100BF000655F7F4FCE0101960E94E709892B31F591
:100C000047E0BE01655F7F4F8DE490E00E944F009A
:100C100061E0CE010B960E94930847E0BE01655F3C
:100C20007F4F81E390E00E944F00CE0101960E9429
:100C30000E0946E050E0BE01655F7F4FCE01019690
:100C40000E94E709892B09F49BCEC4CE47E0BE0180
:100C5000655F7F4F86E490E00E944F0061E0CE0127
:100C60000B960E94930881E085BBB2CF47E0BE019E
:100C7000655F7F4F80E090E00E944F0061E0CE0111
:100C80000B960E949308CE0145960E94D108BD881C
:100C9000B11037CF8FCF47E0BE01655F7F4F80E057
:100CA00090E00E944F0061E0CE010B960E949308F5
:100CB000CE0145960E94D1081D89112309F47ACFEF
:100CC000F5CE0F931F93CF93DF93182F092FD62FB5
:100CD000C42F842F0E94560280E690E09F938F934A
:100CE0000E9486046D2F8C2F0E9456020F931F9333
:100CF0008FE690E09F938F930E9486040F900F9051
:100D00000F900F900F900F90DF91CF911F910F9147
:100D10000895CF93DF93CDB7DEB72A970FB6F89437
:100D2000DEBF0FBECDBFC8990DC047E0BE016F5FEB
:100D30007F4F82E690E00E944F00CE0101960E9414
:100D40009E043FC0C99914C047E0BE016F5F7F4F4A
:100D50008BE590E00E944F0041E060E0CE010196FB
:100D60000E94610661E0CE0101960E949308ECCFDB
:100D7000CA9914C047E0BE016F5F7F4F84E590E0E1
:100D80000E944F0041E060E0CE0101960E946106A2
:100D900061E0CE0101960E949308ECCF48E0BE01CD
:100DA0006F5F7F4F89E690E00E944F0041E060E076
:100DB000CE0101960E94610661E0CE0101960E947B
:100DC00093082A960FB6F894DEBF0FBECDBFDF9111
:100DD000CF910895009791F020E030E0613019F450
:100DE00044E04A95F1F7E7EBFBE03197F1F700C0FB
:100DF00000002F5F3F4F8217930781F70895EF920E
:100E0000FF920F931F93CF93DF938C01D62F7A011C
:100E1000FC011082662361F0C0E0F80180818095BA
:100E2000808360E0C7010E94EA06CF5FDC13F5CF44
:100E3000F8011082DF91CF911F910F91FF90EF90F9
:100E40000895CF93DF93EC0198818881292F30E0BA
:100E5000220F331F2160282B28834115510521F0D3
:100E600060E0CA010E94EA0688818F3F09F4188277
:100E7000DF91CF910895CF93DF93CDB7DEB72A9757
:100E80000FB6F894DEBF0FBECDBF8FEF84BB1ABA8A
:100E90008BBB15BA4AEF50E061E085E390E00E9419
:100EA000210741E060E088E00E9465084AEF50E0D9
:100EB00061E085E390E00E94210746E0BE016F5F9C
:100EC0007F4F81E790E00E944F004AEF50E061E0E1
:100ED00085E390E00E94210761E0CE0101960E9427
:100EE00093084AEF50E061E085E390E00E9421071B
:100EF0000E94F0014AEF50E061E085E390E00E943B
:100F0000210740E060E0CE0101960E9461064AEFB1
:100F100050E061E085E390E00E94210744E650E064
:100F20006AE085E390E00E94FF0648E0BE016F5F43
:100F30007F4F87E890E00E944F0040E060E0CE01E4
:100F400001960E94610661E0CE0101960E9493081D
:100F500048E0BE016F5F7F4F8FE790E00E944F0037
:100F600041E060E0CE0101960E94610661E0CE01A1
:100F700001960E9493082A960FB6F894DEBF0FBE22
:100F8000CDBFDF91CF9108952F923F924F925F9204
:100F90006F927F928F929F92AF92BF92CF92DF9289
:100FA000EF92FF920F931F93CF93DF9300D000D067
:100FB000CDB7DEB72A2C3B2C4C2C5D2C6E2C7F2C15
:100FC00009831A8302E00E94B909822E932E4C8372
:100FD0005B83B62FA72FF82FE92F0E94B909A22E05
:100FE000B32EC42ED52EE62EF72E082F192F282D1E
:100FF000392D4C815B816B2F7A2F8F2F9E2F0E9472
:10100000D209822E932E4C835B83B62FA72FF82F05
:10101000E92F02E00E94B909A22EB32EC42ED52ECC
:10102000E62EF72E082F192F282D392D4C815B81A4
:101030006B2F7A2F8F2F9E2F0E94D209A22CB32CB8
:10104000C42CD52CE62CF72C09811A810E945C094E
:10105000298360E081E00E94560280E690E09F9341
:101060008F930E94860460E081E00E94560289E628
:1010700090E09F938F931F9289818F938BE690E0EE
:101080009F938F930E9486040FB6F894DEBF0FBE25
:10109000CDBF89810F900F900F900F90DF91CF916E
:1010A0001F910F91FF90EF90DF90CF90BF90AF9086
:1010B0009F908F907F906F905F904F903F902F9078
:1010C00008955D9BFECF8CB9089592E09BB910BC4A
:1010D0009AE199B9863349F018F4853371F00BC061
:1010E000873329F0893329F006C082E807C084E8F5
:1010F00005C086E803C086E801C080E88F7C6534BF
:1011000019F06F3419F003C0806201C0806342336C
:1011100011F4886001C0877F80BD88E18AB980E0D2
:101120000E94610808951F93CF93DF93EC01162F5F
:101130008881882331F021960E946108899181116C
:10114000FBCF113051F028F0123071F0133081F0E4
:1011500013C080E00E94610812C08AE00E9461080A
:101160008DE00E9461080BC089E00E94610807C001
:1011700080E20E94610803C08BE10E946108DF9158
:10118000CF911F9108955F9B03C02CB1FC01208378
:101190000895FC015F9BFECF8CB180830E946108A3
:1011A0000895CF92DF92EF92FF920F931F93CF9308
:1011B000DF931F92CDB7DEB76C0119820BE7CE012A
:1011C00001960E94C30889818B37D9F4F6010193F7
:1011D0007F01802F0E94610811E0CE0101960E94DC
:1011E000C9088981F70181937F011F5F183061F081
:1011F0008D3799F7F601E10FF11D10821123F9F2F5
:1012000003C0F6011082DBCF0F90DF91CF911F91C9
:101210000F91FF90EF90DF90CF900895CF92DF92E3
:10122000EF92FF920F931F93CF93DF931F92CDB74F
:10123000DEB7C82ED92E19820BE5CE0101960E9489
:10124000C30889818B35C9F7EC2CFD2CF70101937C
:101250007F01802F0E94610811E0CE0101960E945B
:10126000C9088981F70181937F011F5F183021F040
:101270008D3599F7112309F30F90DF91CF911F91CD
:101280000F91FF90EF90DF90CF900895AA1BBB1BAA
:1012900051E107C0AA1FBB1FA617B70710F0A61B76
:1012A000B70B881F991F5A95A9F780959095BC0197
:1012B000CD010895689401C0E8948F929F92CF93D6
:1012C000DF930E946809DF91CF919F908F900895DE
:1012D00088249924F401E401B0E49F93AA279A1585
:1012E0008B049C04ED05FE05CF05D007A10798F4FB
:1012F000AD2FDC2FCF2FFE2FE92D982C892E982F84
:10130000872F762F652F542F432F322F2227B85047
:1013100031F7BF9127C01B2EBF91BB27220F331F70
:10132000441F551F661F771F881F991F881C991C13
:10133000EE1FFF1FCC1FDD1FAA1FBB1F8A149B04BB
:10134000EC05FD05CE05DF05A007B10748F08A18BA
:101350009B08EC09FD09CE09DF09A00BB10B216048
:101360001A94E1F62EF49401AF01BE01CD01000CF8
:1013700008950F93083090F0982F872F762F652FC0
:10138000542F432F322F22270850F4CF220F331F20
:10139000441F551F661F771F881F991F0A95B2F7B4
:1013A0000F9108952A0D3B1D4C1D5D1D6E1D7F1D67
:1013B000801F911F08950024A7FD00942A0F301D5F
:1013C000401D501D601D701D801D901D0895FB0166
:1013D000DC0104C08D910190801921F441505040EE
:1013E000C8F7881B990B0895DC01CB01FC01E1993A
:1013F000FECF06C0FFBBEEBBE09A31960DB20D9258
:0C14000041505040B8F70895F894FFCF19
:10140C002020202020202020002500503D2575255F
:02141C0073005B
:00000001FF
