S0150000546F6F6C626F784C6F616465722E73726563D1
S11300000C942A000C9447000C9447000C9447006D
S11300100C9447000C9447000C9447000C94470040
S11300200C9447000C9447000C9447000C94470030
S11300300C9447000C9447000C9447000C94470020
S11300400C9447000C9447000C9447000C94470010
S11300500C94470011241FBECFE5D4E0DEBFCDBF12
S113006010E0A0E6B0E0ECE9F2E102C005900D92E8
S1130070A237B107D9F720E0A2E7B0E001C01D9292
S1130080A637B207E1F70E9449000C944C090C947E
S113009000000E9481060E94CF050000FECF9C0153
S11300A0CB0150E0B9010E943C09089511B887E0E2
S11300B080B9089584EA86BF06B607FEFDCF089589
S11300C083B984E886BF06B607FEFDCF0895811183
S11300D003C084E886BF02C084EC86BF06B607FE70
S11300E0FDCF83B108952F923F924F925F926F920A
S11300F07F928F929F92AF92BF92CF92DF92EF92B4
S1130100FF920F931F93CF93DF93CDB7DEB7299759
S11301100FB6F894DEBF0FBECDBF89836A833A0160
S11301202B830E945A0089810E9460008A810E9468
S113013060000E945A00898181600E9460002B81C6
S1130140222309F45BC0822F815090E0FC01319698
S1130150FD83EC83F1E0198619821A82512C212C3B
S1130160312C412C812C912C822F90E09C01215028
S113017031093F832E83F8878E819F8188159905E5
S11301803CF080E00E946700F30181933F0105C0C9
S113019081E00E946700F3018083FFEF6F1A7F0AFA
S11301A0AB80B12CC12CD12CE12CF12C00E010E05F
S11301B02885398549815A81652D722D842D932D89
S11301C00E940C072FEF821A920A288539854981EB
S11301D05A81652D722D842D932DA1E00E9423094F
S11301E02887398749835A83562E272E482E392E3D
S11301F08C819D818816990609F0BECF84E986BF5B
S113020029960FB6F894DEBF0FBECDBFDF91CF9114
S11302101F910F91FF90EF90DF90CF90BF90AF9020
S11302209F908F907F906F905F904F903F902F9012
S113023008953F924F925F926F927F928F929F9216
S1130240AF92BF92CF92DF92EF92FF920F931F93E0
S1130250CF93DF93CDB7DEB7482E362E7A01522ED8
S11302608DB69EB6622E712C8DB79EB786199709EE
S11302700FB6F8949EBF0FBE8DBFEDB7FEB7319693
S11302805F010E945A00842D0E946000832D0E9409
S11302906000552001F1CC24CA94C50CD12CFFEF89
S11302A0CF1ADF0A87010C0D1D1DF70181917F0113
S11302B00E946000E016F106C1F71DC091918D9176
S11302C0981305C0EC15FD05C9F78FEF31C080E028
S11302D02FC080E02DC084E986BF87E99AE30197A7
S11302E0F1F700C0000020E0A501632D842D0E94D9
S11302F073008FEF1DC084E986BF06191709E7E96B
S1130300FAE33197F1F700C00000252DA501632D14
S1130310842D0E947300F5019081F8018081981367
S1130320D8CFF5013196D8011196CA0CDB1CCACF7F
S11303300FB6F8949EBE0FBE8DBEDF91CF911F9174
S11303400F91FF90EF90DF90CF90BF90AF909F9070
S11303508F907F906F905F904F903F900895DC9ABC
S1130360E7E5F2E03197F1F700C00000DE9898B3BA
S11303709B7198BB80FDC29A81FDC59A82FDC69A85
S113038083FDC79A84FDDE9ADC9887E592E00197A5
S1130390F1F700C0000008958FE59AEE0197F1F798
S11303A000C0000080E00E94AF018FE59AEE019743
S11303B0F1F700C0000082E00E94AF0108958AB303
S11303C080658ABB87B3846E87BB8FE59AEE0197FD
S11303D0F1F700C0000083E00E94AF018FE295E7CF
S11303E00197F1F700C0000083E40E94AF0187EB9E
S11303F09BE00197F1F700C0000083E00E94AF0189
S113040082E00E94AF0182E00E94AF0188E00E9476
S1130410AF0180E00E94AF018CE00E94AF0180E058
S11304200E94AF0181E00E94AF0180E00E94AF0111
S113043086E00E94AF0187EB9BE00197F1F700C0D3
S113044000000E94CC016AE272E080E090E00E9429
S11304506C040895CF93C62F862F82958F70E7E59D
S1130460F2E03197F1F700C0000080610E94AF0113
S11304708C2F8F70E7E5F2E03197F1F700C00000B0
S113048080610E94AF01CF910895CF93C62F81114F
S1130490C05C8C2F82958F70E7E5F2E03197F1F71D
S11304A000C0000088600E94AF0187E592E00197D8
S11304B0F1F700C000008C2F8F700E94AF01CF9124
S11304C008958F929F92AF92BF92CF92DF92EF9254
S11304D0FF920F931F93CF93DF93EC018B015A018B
S11304E0790186179707A0F0E1E0F0E0CF01809F43
S11304F0F001819FF00D909FF00D1124CE01BF01FA
S11305000E948E086017710788F7309719F437C076
S1130510E1E0F0E0C12CD12C01C07A01CE01BF0191
S11305200E948E08362F262F862E972EC82FD92F5D
S1130530CF01B8010E948E08FB01C114D10439F423
S11305401814190424F0309711F1A701E6CFA7017C
S11305504F5F5F4F9AE0891691042CF0A114B10407
S113056021F487E503C080E301C087E3380FD70196
S11305703C93BFEFCB1ADB0A309779F601C0A70191
S1130580FA0110820CC0205DD7012C93F9CFA7018A
S11305904F5F5F4FBAE08B169104ACF3DFCFDF916E
S11305A0CF911F910F91FF90EF90DF90CF90BF906C
S11305B0AF909F908F9008959F92AF92BF92CF92E9
S11305C0DF92EF92FF920F931F93CF93DF936C010F
S11305D05B01211104C06894992495F804C00F2E7E
S11305E0F0E39F2EF02D78018FEFE81AF80AF80156
S11305F06081662349F11416150664F5F701CA01F2
S1130600019721912223D1F0AC01892BC1F722C09B
S1130610692DC601F50109952197CE010196181699
S11306201906B4F3F80160816623B9F0E701C60145
S1130630F501099569916111FACF0FC0EA0122977A
S1130640181619062CF3F2CFEA0121971416150691
S1130650FCF203C0F8016081E9CFDF91CF911F91D3
S11306600F91FF90EF90DF90CF90BF90AF909F904D
S113067008952F923F924F925F926F927F928F9242
S11306809F92AF92BF92CF92DF92EF92FF920F931D
S11306901F93CF93DF93CDB7DEB760970FB6F8946F
S11306A0DEBF0FBECDBF4C015B016A018901212C65
S11306B09E012F5F3F4F3E872D87512C312CCE0159
S11306C00296988B8F87EBC0653239F09FEFC91A79
S11306D0D90AC401F5010995E2C0F601818180338C
S11306E029F0F2E0CF0ED11C412C08C0F601828122
S11306F096012D5F3F4F69014424439490ED980F78
S11307009A30A0F5A601E52CF32C11C0C701880F7F
S1130710991FEE0CFF1CEE0CFF1CEE0CFF1CE80EE8
S1130720F91EE20EF31EF60180814F5F5F4F6A01EE
S113073090ED980F9A3028F4282F30E02053310997
S113074011C09FE9980F963028F4282F30E02755E0
S1130750310908C09FEB980F963050F4282F30E0F1
S1130760275331092B30310588F202C0E52CF32CD4
S1130770833609F476C050F4853209F48CC0883588
S113078009F450C0882309F48EC089C0833709F462
S113079073C018F4843611F182C0853721F088378C
S11307A009F440C07CC03801F2E06F0E711C9E0158
S11307B02F5F3F4F452D532D6AE070E0F801808193
S11307C091810E9461028E010F5F1F4F242DA701AA
S11307D0B501C4010E94DC02830161C03801F2E06A
S11307E06F0E711CF80180819181992344F49195D5
S11307F081959109FDE2F9832F85388902C02D8501
S11308003E85452D532D6AE070E00E9461028E0101
S11308100F5F1F4F242DA701B501C4010E94DC0204
S113082083013DC0380122E0620E711C41E0522D6B
S1130830883511F0452D532D9E012F5F3F4F60E108
S113084070E0F801808191810E9461028E010F5F46
S11308501F4F242DA701B501C4010E94DC028301AE
S11308601EC07801F2E0EF0EF11CF8016081C401B2
S1130870F5010995870113C03801F2E06F0E711C70
S1130880F8010081118120E0A701B501C4010E9493
S1130890DC02830104C065E2C401F5010995F60197
S11308A06081611111CF60960FB6F894DEBF0FBE60
S11308B0CDBFDF91CF911F910F91FF90EF90DF900B
S11308C0CF90BF90AF909F908F907F906F905F90EC
S11308D04F903F902F90089570937500609374002B
S11308E090937300809372000895CF93DF93CDB7F4
S11308F0DEB79E012B5F3F4FF901419151919F015A
S113090060917400709175008091720090917300F1
S11309100E943903DF91CF910895CF93DF93CDB730
S1130920DEB7CE51D1400FB6F894DEBF0FBECDBFB7
S11309308C0141E060E00E94A70561E0C8010E94CB
S1130940DB070F2EF5E0DF2EF02D7E0186E2E80EA8
S1130950F11C62C047E0BE01655F7F4F8EE090E00E
S11309600E944F0046E050E0BE01655F7F4FCE011C
S113097001960E942F09892B09F49DC047E0BE010E
S1130980655F7F4F86E490E00E944F0061E0CE01F6
S11309900B960E94DB07D5BA3FC0F80181918F0105
S11309A00E94A907E016F106C1F747E0BE01655FA2
S11309B07F4F8DE490E00E944F0061E0CE010B96E2
S11309C00E94DB0776C0C8010E9411080F5F1F4F09
S11309D0E016F106C1F727E0AE01415E5F4F60E02B
S11309E080EA0E9419018F3F49F447E0BE01655F28
S11309F07F4F8DE490E00E944F0008C047E0BE01A5
S1130A00655F7F4F86E490E00E944F0061E0CE0175
S1130A100B960E94DB074DC015BA47E0BE01655F27
S1130A207F4F82E690E00E944F00CE0101960E9423
S1130A30560846E050E0BE01655F7F4FCE01019647
S1130A400E942F09892B29F547E0BE01655F7F4F7E
S1130A508DE490E00E944F0061E0CE010B960E946D
S1130A60DB0747E0BE01655F7F4F85E190E00E94B0
S1130A704F00CE0101960E94560846E050E0BE01A8
S1130A80655F7F4FCE0101960E942F09892BA9F142
S1130A9061CF47E0BE01655F7F4F86E490E00E942E
S1130AA04F0061E0CE010B960E94DB0781E085BB1D
S1130AB0B3CF1F8EB1CF47E0BE01655F7F4F80E0AB
S1130AC090E00E944F0061E0CE010B960E94DB078C
S1130AD0CE0145960E94190847E0BE01655F7F4F2D
S1130AE088E390E00E944F0061E0CE010B960E94E3
S1130AF0DB078E01015E1F4F66CF47E0BE01655FD5
S1130B007F4F80E090E00E944F0061E0CE010B96A1
S1130B100E94DB07CE0145960E94190847E0BE01FA
S1130B20655F7F4F8FE390E00E944F0061E0CE014C
S1130B300B960E94DB0727E0AE01415E5F4F60E049
S1130B4080EA0E9473008E01015E1F4F26CF0F932F
S1130B501F93CF93DF93182F092FD62FC42F842FE1
S1130B600E94450280E690E09F938F930E94750453
S1130B706D2F8C2F0E9445020F931F938FE690E0F8
S1130B809F938F930E9475040F900F900F900F9076
S1130B900F900F90DF91CF911F910F910895CF93F4
S1130BA0DF93CDB7DEB72A970FB6F894DEBF0FBE3A
S1130BB0CDBFC8990DC047E0BE016F5F7F4F82E68D
S1130BC090E00E944F00CE0101960E948D043FC028
S1130BD0C99914C047E0BE016F5F7F4F8BE590E079
S1130BE00E944F0041E060E0CE0101960E94A705FB
S1130BF061E0CE0101960E94DB07ECCFCA9914C0D4
S1130C0047E0BE016F5F7F4F84E590E00E944F0094
S1130C1041E060E0CE0101960E94A70561E0CE01AB
S1130C2001960E94DB07ECCF48E0BE016F5F7F4F67
S1130C3089E690E00E944F0041E060E0CE01019619
S1130C400E94A70561E0CE0101960E94DB072A9667
S1130C500FB6F894DEBF0FBECDBFDF91CF910895DC
S1130C60009791F020E030E0613019F444E04A95B7
S1130C70F1F7E7EBFBE03197F1F700C000002F5FDD
S1130C803F4F8217930781F70895EF92FF920F93D6
S1130C901F93CF93DF938C01D62F7A01FC0110822E
S1130CA0662361F0C0E0F80180818095808360E074
S1130CB0C7010E943006CF5FDC13F5CFF801108224
S1130CC0DF91CF911F910F91FF90EF900895CF93F3
S1130CD0DF93EC0198818881292F30E0220F331FA4
S1130CE02160282B28834115510521F060E0CA01B9
S1130CF00E94300688818F3F09F41882DF91CF91DA
S1130D000895CF93DF93CDB7DEB72A970FB6F89443
S1130D10DEBF0FBECDBF8FEF84BB1ABA8BBB15BA33
S1130D204AEF50E061E085E390E00E94670641E00D
S1130D3060E088E00E94AD074AEF50E061E085E39F
S1130D4090E00E94670646E0BE016F5F7F4F81E737
S1130D5090E00E944F004AEF50E061E085E390E0AC
S1130D600E94670661E0CE0101960E94DB074AEF0C
S1130D7050E061E085E390E00E9467060E9456001F
S1130D800E94DF014AEF50E061E085E390E00E94B9
S1130D90670640E060E0CE0101960E94A7054AEF95
S1130DA050E061E085E390E00E94670644E650E08D
S1130DB06AE085E390E00E94450648E0BE016F5F6B
S1130DC07F4F87E890E00E944F0040E060E0CE0152
S1130DD001960E94A70561E0CE0101960E94DB07FF
S1130DE048E0BE016F5F7F4F8FE790E00E944F00A5
S1130DF041E060E0CE0101960E94A70561E0CE01CA
S1130E0001960E94DB072A960FB6F894DEBF0FBE48
S1130E10CDBFDF91CF9108952F923F924F925F9271
S1130E206F927F928F929F92AF92BF92CF92DF92F6
S1130E30EF92FF920F931F93CF93DF9300D000D0D4
S1130E40CDB7DEB72A2C3B2C4C2C5D2C6E2C7F2C82
S1130E5009831A8302E00E940109822E932E4C8397
S1130E605B83B62FA72FF82FE92F0E940109A22E2A
S1130E70B32EC42ED52EE62EF72E082F192F282D8B
S1130E80392D4C815B816B2F7A2F8F2F9E2F0E94DF
S1130E901A09822E932E4C835B83B62FA72FF82F2B
S1130EA0E92F02E00E940109A22EB32EC42ED52EF2
S1130EB0E62EF72E082F192F282D392D4C815B8112
S1130EC06B2F7A2F8F2F9E2F0E941A09A22CB32CDE
S1130ED0C42CD52CE62CF72C09811A810E94A40875
S1130EE0298360E081E00E94450280E690E09F93C0
S1130EF08F930E94750460E081E00E94450289E6B8
S1130F0090E09F938F931F9289818F938BE690E05B
S1130F109F938F930E9475040FB6F894DEBF0FBEA3
S1130F20CDBF89810F900F900F900F90DF91CF91DB
S1130F301F910F91FF90EF90DF90CF90BF90AF90F3
S1130F409F908F907F906F905F904F903F902F90E5
S1130F5008955D9BFECF8CB9089592E09BB910BCB7
S1130F609AE199B9863349F018F4853371F00BC0CE
S1130F70873329F0893329F006C082E807C084E862
S1130F8005C086E803C086E801C080E88F7C65342C
S1130F9019F06F3419F003C0806201C080634233DA
S1130FA011F4886001C0877F80BD88E18AB980E040
S1130FB00E94A90708951F93CF93DF93EC01162F86
S1130FC08881882331F021960E94A9078991811193
S1130FD0FBCF113051F028F0123071F0133081F052
S1130FE013C080E00E94A90712C08AE00E94A907EA
S1130FF08DE00E94A9070BC089E00E94A90707C0E1
S113100080E20E94A90703C08BE10E94A907DF9137
S1131010CF911F9108955F9B03C02CB1FC012083E5
S11310200895FC015F9BFECF8CB180830E94A907C9
S11310300895CF92DF92EF92FF920F931F93CF9375
S1131040DF931F92CDB7DEB76C0119820BE7CE0197
S113105001960E940B0889818B37D9F4F60101931C
S11310607F01802F0E94A90711E0CE0101960E9402
S113107011088981F70181937F011F5F183061F0A6
S11310808D3799F7F601E10FF11D10821123F9F262
S113109003C0F6011082DBCF0F90DF91CF911F9137
S11310A00F91FF90EF90DF90CF900895CF92DF9251
S11310B0EF92FF920F931F93CF93DF931F92CDB7BD
S11310C0DEB7C82ED92E19820BE5CE0101960E94F7
S11310D00B0889818B35C9F7EC2CFD2CF7010193A2
S11310E07F01802F0E94A90711E0CE0101960E9482
S11310F011088981F70181937F011F5F183021F066
S11311008D3599F7112309F30F90DF91CF911F913A
S11311100F91FF90EF90DF90CF900895AA1BBB1B17
S113112051E107C0AA1FBB1FA617B70710F0A61BE3
S1131130B70B881F991F5A95A9F780959095BC0104
S1131140CD010895689401C0E8948F929F92CF9343
S1131150DF930E94B008DF91CF919F908F90089504
S113116088249924F401E401B0E49F93AA279A15F2
S11311708B049C04ED05FE05CF05D007A10798F468
S1131180AD2FDC2FCF2FFE2FE92D982C892E982FF1
S1131190872F762F652F542F432F322F2227B850B5
S11311A031F7BF9127C01B2EBF91BB27220F331FDE
S11311B0441F551F661F771F881F991F881C991C81
S11311C0EE1FFF1FCC1FDD1FAA1FBB1F8A149B0429
S11311D0EC05FD05CE05DF05A007B10748F08A1828
S11311E09B08EC09FD09CE09DF09A00BB10B2160B6
S11311F01A94E1F62EF49401AF01BE01CD01000C66
S113120008950F93083090F0982F872F762F652F2D
S1131210542F432F322F22270850F4CF220F331F8D
S1131220441F551F661F771F881F991F0A95B2F721
S11312300F9108952A0D3B1D4C1D5D1D6E1D7F1DD4
S1131240801F911F08950024A7FD00942A0F301DCC
S1131250401D501D601D701D801D901D0895FB01D3
S1131260DC0104C08D910190801921F4415050405B
S1131270C8F7881B990B0895DC01CB01FC01E199A7
S1131280FECF06C0FFBBEEBBE09A31960DB20D92C5
S10F129041505040B8F70895F894FFCF87
S113129C2020202020202020002500503D257525CD
S10512AC7300C9
S9030000FC
